:100000004DC0DEC166C065C064C063C062C061C06F
:1000100060C05FC05EC05DC05CC05BC05AC059C0FC
:1000200058C057C056C009022200010100800A09C9
:100030000400000103000000092101010001221653
:100040000007058103080064120110010000000888
:10005000C016DF050001010200011603540065000F
:100060006D007000530065006E0073006F00720039
:1000700012034F00700065006E00570061007600AB
:100080006500040309040600FF0901A1011500260B
:10009000FF00750895800900B20201C011241FBE3F
:1000A000CFE5D4E0DEBFCDBF10E0A0E6B0E0E4ECE9
:1000B000F0E102C005900D92AA36B107D9F711E020
:1000C000AAE6B0E001C01D92A032B107E1F730D737
:1000D000F7C796CFCF93C62F2091BB0024FF07C050
:1000E0002091BC0038E823272093BC0003C02AE5F8
:1000F0002093BB002C2FFC01ADEBB0E081918D93E0
:1001000021501216DCF38DEB90E06C2F55D1CC5FB3
:10011000C093BB00CF910895CF93DF936091CC0043
:10012000635067FDC2C02091C9008CE090E0821B43
:100130009109EC01C053DF4F2091C8002D3209F026
:10014000A2C0683009F0AFC023EC2093B0002AE5CC
:100150002093600010926A002881207631F0CE0151
:10016000EED58F3F09F47EC084C03A811092B90069
:100170002981222331F41092BA0029EB30E082E089
:100180006CC0253019F43093CD0064C0263009F0DE
:100190004BC0FC01EE52FF4F20818D529F4FFC015E
:1001A0008081813019F488E490E01AC0823041F4F3
:1001B00086E290E09093CB008093CA0082E230C048
:1001C0008330C9F4222341F482E890E09093CB007D
:1001D0008093CA0084E024C0213041F480E790E09D
:1001E0009093CB008093CA0082E11AC02230B9F408
:1001F0008AE590E00EC0813241F488E390E090936C
:10020000CB008093CA0089E00BC0823241F486E8BB
:1002100090E09093CB008093CA0086E101C080E01B
:1002200090E490936A0025C0283069F0293019F4D1
:100230003093CF000FC02A3049F02B3059F48BE4B3
:100240008093BC0007C02FEC30E002C029EB30E007
:1002500081E003C029EB30E080E03093CB002093B5
:10026000CA0007C0988197FD8E8190E890936A003C
:1002700007C09F81992321F49E81981708F4892F44
:100280008093610010C080916A0087FF0CC0CE018E
:1002900054D58F3F21F48EE18093600004C0882301
:1002A00011F0109261001092CC008091600084FFE8
:1002B00054C0809161008F3F09F44FC0C82F89302E
:1002C00008F0C8E08C1B809361008091B00098E832
:1002D00089278093B000CC2379F120916A0027FF11
:1002E00008C081EB90E06C2FFFD4C82F893078F5DF
:1002F00023C08091CA009091CB0026FF0AC0FC0168
:100300002C2FA1EBB0E034913D9331962150D9F7D9
:1003100008C0DC012C2FE1EBF0E03D91319321503E
:10032000E1F72C2F215030E02F5F3F4F280F391F6E
:100330003093CB002093CA0081EB90E06C2F3CD02F
:10034000CC5FCC3041F08FEF8093610004C08FEF21
:1003500080936100CEE1C093600084E190B394711A
:1003600031F48150D9F71092CD001092C700DF917F
:10037000CF91089585B7826085BF8BB780648BBFAE
:100380008BE48093BC008AE58093BB000895A82F7E
:10039000B92F80E090E041E050EA609530E009C07C
:1003A0002D9182279795879510F084279527305EA9
:1003B000C8F36F5FA8F30895EADF8D939D930895C6
:1003C000CF93CFB7CF93C395849BE9F7849B09C0A4
:1003D000849B07C0849B05C0849B03C0849B01C091
:1003E000A3C0DF93C091C900DD27C053DF4F849BBA
:1003F00002C0DF91EBCF2F930F931F9300B32FEF2A
:1004000004FB20F94F933F9310B34FEF012704FBF8
:1004100021F93BE031C04E7F012F10B3216028C08D
:10042000102F4D7F2260000000B329C04B7F246055
:10043000012F000010B32BC010B3477F28602AC0E3
:100440004F7E00B320612CC04F7D10B320622FC0BF
:100450004F7B00B3206432C0422700B349934FEF73
:100460000000102714FB20F910B31471C9F1297F83
:1004700091F2012704FB21F900B3237F89F2315067
:1004800058F1102714FB22F910B3277E79F20127C7
:1004900004FB23F92F7C81F200B3102714FB24F90D
:1004A0002F7971F200C010B3012704FB25F92F73D7
:1004B00059F200C000B3102714FB26F9223040F295
:1004C00000C010B3012704FB27F9243028F64F772A
:1004D000206810B30000F9CF10E41ABF002719C03C
:1004E0003B503195C31BD04010E41ABF0881033C38
:1004F000F9F00B34E9F02091C7001981110F1213A4
:10050000EDCF4A81441F093641F10D3211F0013E11
:1005100029F70093CE003F914F911F910F912F919A
:10052000DF91CAB7C6FD4FCFCF91CFBFCF911895FE
:100530002091CE00222379F31091CC00112369F58C
:1005400034306AF13093CC002093C8001091C90078
:100550003BE0311B3093C90022C00091CC00013038
:10056000E4F40AE54F7049F43091600034FD19C09D
:1005700000936000C0EBD0E018C03091BB0034FDA8
:1005800010C00093BB00CCEBD0E00FC02795A8F4BF
:100590005150A9F4220F0000F9CF4AE503C042ED03
:1005A00001C0432FC4E1D0E032E011B31461949A4A
:1005B00011BB02B320E414E15F93012756E002BBB4
:1005C000279520F4515021F4220FF9CF012756E04E
:1005D00000003B5A02BBD0F2279528F4515029F471
:1005E000220F0000F9CF012756E0279502BB20F427
:1005F000515021F4220FF9CF012756E029913323DE
:1006000002BB21F60B7E1091CD00110FC651D040D8
:1006100002BB11F01093C70010E41ABF006111B3C0
:100620001B7E402F4B7E5F9100C000C002BB11BB00
:1006300042BB71CF86B381700895C09AB89A08956D
:10064000C098B8980895C098B89A80EA95E0019744
:10065000F1F72FB7F894B89886EC90E00197F1F78E
:1006600086B32FBFEAEDF4E03197F1F7B09B02C0FB
:100670008170089581E008952FB7F894B89A94E0B6
:100680009A95F1F78111B89898E39A95F1F7B09B94
:1006900080E094EB9A95F1F7B8982FBF0895CF9327
:1006A000DF93C82FD8E08C2F8170E6DFC6958111CB
:1006B000C068D150C1F78C2FDF91CF9108958FEF93
:1006C000EEDF0895DF92EF92FF920F931F93CF9387
:1006D000DF93182FEB01B7DF882361F580EFDFDFB1
:1006E000EE2400E498E0D92E81E0C6DFF82E81E008
:1006F000C3DF882319F0FF2069F01FC0FF2051F4E9
:10070000011728F0888180FF05C0101719F0E02E2E
:10071000FF24F3948F2DB0DF888186958883FF2096
:1007200011F0806888830150DA94F1F62196002355
:10073000C9F605C0EE24EA9402C08EEFE82E8E2D95
:10074000DF91CF911F910F91FF90EF90DF9008956F
:100750000F931F93CF93DF93182FEB0174DF209734
:1007600041F085E59CDF08E0899199DF0150E1F7D0
:1007700002C08CEC94DF812F92DFDF91CF911F912B
:100780000F9108950F931F93CF93DF93E82FDB0111
:10079000EA01B9014C9150E011969C91119780E0CB
:1007A000482B592BE03181F4CA018E7F33E0880F4A
:1007B000991F3A95E1F716962C9116974CE050E068
:1007C000421B5109480F591F57FF06C081E088831B
:1007D000509541955F4F01C01882E83299F4149604
:1007E0008C91149790E09C01207630702036310572
:1007F00049F086FF02C04E7F05C085FF02C04C7FD6
:1008000001C0487FCA0124E0969587952A95E1F7B3
:10081000FB0180834F70F801408380E0DF91CF912E
:100820001F910F9108951F93CF93DF93CDB7DEB73C
:1008300028970FB6F894DEBF0FBECDBF182FE62F56
:10084000F42FCE01019642E650E028E0DA010D9047
:10085000AD01DC010D92CD012150C1F74F2F50E0C9
:1008600021E732E0429FC001439F900D529F900DBF
:10087000112468EE73E0C0D3CB014E2F50E09A01F3
:10088000220F331FA3E0440F551FAA95E1F7240F51
:10089000351F820F931F112351F4DE01119628E0BA
:1008A0003D91F31711F4019602C02150C9F7289623
:1008B0000FB6F894DEBF0FBECDBFDF91CF911F9171
:1008C0000895882319F0709561957F4F442319F09E
:1008D000309521953F4F6217730734F081E026175A
:1008E00037071CF080E008958FEF08950F931F9352
:1008F000CF93DF93EC018B018881B801E3DE88831D
:1009000081508D3F30F4F8018081883211F08031C0
:1009100099F7DF91CF911F910F910895CF93DF93B6
:10092000EC0191DE84EBBE0113DF81E0A5DEC82F70
:100930008ADE81E0CC2309F480E0DF91CF91089535
:100940001F93CF93DF93182FEB017DDE73DE882397
:1009500039F084E4BE01FCDE113021F06EDE02C00D
:1009600082E001C080E0DF91CF911F9108956F92E6
:100970007F928F929F92BF92CF92DF92EF92FF92DF
:100980000F931F93CF93DF93CDB7DEB729970FB6A1
:10099000F894DEBF0FBECDBF7C014B013A01690167
:1009A00052DE8EEBB701D4DE8E010F5F1F4FB9E030
:1009B000BB2E85DEF80181938F01BA94D1F7CE0169
:1009C000019669E070E0DED0882359F4F701808158
:1009D000BE016F5F7F4FA40193018601D3DE80E0EB
:1009E00001C083E029960FB6F894DEBF0FBECDBFDD
:1009F000DF91CF911F910F91FF90EF90DF90CF90FB
:100A0000BF909F908F907F906F9008958F929F924C
:100A1000AF92BF92CF92DF92EF92FF920F931F930C
:100A2000CF93DF93CDB7DEB729970FB6F894DEBF2B
:100A30000FBECDBFD82E5B014A0179018EEB60E07D
:100A400070E086DE8E010F5F1F4F89E0C82E37DE13
:100A5000F80181938F01CA94D1F7CE01019669E024
:100A600070E090D0882351F48D2DBE016F5F7F4FD1
:100A7000A5019401870186DE80E001C083E029960C
:100A80000FB6F894DEBF0FBECDBFDF91CF911F919F
:100A90000F91FF90EF90DF90CF90BF90AF909F901D
:100AA0008F900895FF920F931F93CF93DF93EC01E4
:100AB000162F042FF22EC7DDBDDD882369F08EE4EA
:100AC000BE0146DE812FEBDD802FE9DD8881883293
:100AD00029F48F2DE4DD02C081E001C080E0DF91C8
:100AE000CF911F910F91FF9008950F931F93CF9374
:100AF000DF93EC018B01A7DD9DDD882359F08EEBA0
:100B0000BE0126DEE80119E0DADD89931150E1F734
:100B100080E001C081E0DF91CF911F910F91089596
:100B20001F93CF93DF93182FEB018DDD83DD882397
:100B300071F088E4BE010CDE113009F07EDDE0E3E7
:100B4000F5E73197F1F7113021F07ADD02C082E04C
:100B500001C080E0DF91CF911F910895CF93DF9383
:100B6000EC0171DD67DD882349F088EBBE01F0DD23
:100B700080E395E70197F1F780E001C081E0DF9124
:100B8000CF910895FC0120E030E080E0A8E111C0A1
:100B9000419198E0542F5827B52FB17050FD8A2706
:100BA0008695B13009F480684695915099F72F5F8A
:100BB0003F4F2617370761F70895EF92FF921F9373
:100BC000CF93DF93CDB7DEB729970FB6F894DEBF8A
:100BD0000FBECDBF8FEF898388EFE82E80E0F82E1F
:100BE00010E01DC0CE010196BE016E5F7F4F7EDE1C
:100BF00089818F3FC9F08E3FB9F0DE01129680E007
:100C000090E02D91F701E80FF91F208301968830BD
:100C10009105B9F71F5F88E090E0E80EF91E898121
:100C2000882311F01530F1F6812F29960FB6F8942C
:100C3000DEBF0FBECDBFDF91CF911F91FF90EF9030
:100C4000089580E060E070E07BDE0895EF92FF920F
:100C50001F93CF93DF9300D00F92CDB7DEB710E094
:100C600024C0E12EFF24C70123E0880F991F2A9595
:100C7000E1F788509F4FBE016D5F7F4FAE014E5F21
:100C80005F4F9E012F5F3F4F72DE882369F4F701AB
:100C9000EE0FFF1FEE0DFF1DE751FF4F8B8180838D
:100CA0008A818183898182831F5F8091E600181782
:100CB000C0F20F900F900F90DF91CF911F91FF9096
:100CC000EF900895BEDF8CE49DE12CE231E0F90164
:100CD0003197F1F70197D9F7B9DF0895B99AC1981B
:100CE0000895B998C19A0895FC01862F2091E700D4
:100CF0003091E8002130310551F02130310520F0EC
:100D000022303105C1F407C090916F0002C090916C
:100D10006D009083089590916D00908390916C0088
:100D2000918390916F00928390916E009383909144
:100D30006B00948308951082089581E00895FC016A
:100D400080E790E09093CB008093CA008181813E40
:100D500041F482818093700083818093710082E0EE
:100D60000895823E31F48091E6008093700081E026
:100D70000895833E01F5E281F0E043E0EE0FFF1FAE
:100D80004A95E1F7E850FF4F8081809370008181A0
:100D900080937100828180937200838180937300BD
:100DA000848180937400858180937500868180930F
:100DB000760087E00895843ED9F482819091E60020
:100DC000981708F480E08093700090E0FC01EE0F2B
:100DD000FF1FE80FF91FE751FF4F808180937100DB
:100DE00081818093720082818093730084E00895F2
:100DF000908190769032B1F4813D29F41092E80010
:100E00001092E7000DC0823D19F481E090E004C02B
:100E1000833D51F482E090E09093E8008093E700F6
:100E20008FEF089580E0089580E008951F93CF9399
:100E3000DF9300D000D00F92CDB7DEB7782F1D82A0
:100E40001C821B821A821982A895F8948B9A939A15
:100E50009398E0E6FAEE3197F1F7939A80EA8A9553
:100E6000F1F78B9890B3987060E0B0E014E007C0A1
:100E7000812F8A95F1F7AF5FA13521F447C0A0E03B
:100E8000492F50E020B330E02870307042175307EC
:100E900079F39830A1F4633090F08B2F8695869586
:100EA0008695E1E0F0E0EC0FFD1FE80FF11D808179
:100EB000880F8083AE3110F081608083BF5F90B374
:100EC00098706F5F6435D9F678948981FA819B8137
:100ED000EC816D812F2F30E0280F311D290F311D3E
:100EE0002E0F311D462F50E024173507A9F48093AB
:100EF0006D00F0936C0090936F00E0936E00609330
:100F00006B00772359F0713039F409C078948FEF72
:100F100080936D0080936F0080E001C0892F0F9057
:100F20000F900F900F900F90DF91CF911F91089528
:100F30002EE088E190E00FB6F894A89581BD0FBE31
:100F400021BD18DA8C9A40E028EB3BE004C0A8955C
:100F5000C9010197F1F74150D1F78C987894DCD80A
:100F6000A895BCDE2ADE8093E600882311F4B9DE62
:100F700001C0B4DEA895C0E000E010E0EE24FF243C
:100F800050EA852E56E8952E51E0A52EB12CA89555
:100F9000C3D8B70180E090E0A501940140D0DC0106
:100FA000CB010097A105B10521F4A89582E03EDFB1
:100FB000CF5F8091E6008823C1F00115110539F457
:100FC000C23099F4A8958ADE3CDE8BDE12C0013077
:100FD000110559F4C33069F4A89580DE37DE81DE4F
:100FE000A8957FDEC0E000E010E00894E11CF11C51
:100FF000CECF01E010E0F9CF97FB092E07260AD0EB
:1010000077FD04D027D006D000201AF470956195A2
:101010007F4F0895F6F7909581959F4F089597FB20
:10102000092E05260ED057FD04D028D00AD0001C6A
:1010300038F450954095309521953F4F4F4F5F4F75
:101040000895F6F790958095709561957F4F8F4F35
:101050009F4F0895AA1BBB1B51E107C0AA1FBB1FCE
:10106000A617B70710F0A61BB70B881F991F5A9534
:10107000A9F780959095BC01CD010895A1E21A2EA3
:10108000AA1BBB1BFD010DC0AA1FBB1FEE1FFF1F2C
:10109000A217B307E407F50720F0A21BB30BE40B7C
:1010A000F50B661F771F881F991F1A9469F76095C3
:1010B0007095809590959B01AC01BD01CF0108957D
:0410C000F894FFCFD2
:0A10C4005AFF01030406090B0C0E8D
:00000001FF
